:0300000002110FDB
:0C110F00787FE4F6D8FD75816A020EC9F5
:100FF30073697A653A256400636C65617200000069
:1010030000000000000000000000000000000000DD
:1010130000000000000000000000000000000000CD
:06102300000000000000C7
:100EC90078227C007D007BFF7A1079017E007F14F7
:100ED9001208D078367C007D007BFF7A1079157E68
:100EE900007F141208D0E4F54AF54B1210A912112B
:100EF9001B7F801210D97B007A0079221210297B7E
:100F0900007A0079221210C28E4A8F4B754FFF75F5
:100F1900500F7551F3854A52854B537B007A0079FE
:100F290036120BC978227C007D007BFF7A0F79FB92
:100F3900120A8DEF70237F011210D97E007F147D74
:100F4900007B007A007922120AAA7E007F147D00B4
:100F59007B007A007936120AAA7B007A007922127C
:100F690010847FC01210D97B007A00793612108460
:100F79007E007F147D007B007A007922120AAA7E06
:100F8900007F147D007B007A007936120AAA7FF46B
:080F99007E011210FD020EFAA8
:0C111B00758920759850758DFDD28E22CC
:10102900E4FFFE3098FD85994CC298E54C640A604E
:101039000D0FEF70010E14244DF8A64C80E5756470
:101049000075650075664DEF24FFF568EE34FFF510
:0410590067020FA17A
:1010D9008FA0C280C281D2827F017E001210FDC220
:0210E900822261
:1010A9007F381210D97F0C1210D97F801210D97F86
:0910B900061210D97F010210D9C2
:1010EB008FA0D280C281D2827F017E001210FDC2FE
:0210FB0082224F
:101084008B4C8A4D894EAB4CAA4DA94E1208F66082
:1010940013054EE54E7002054D14F91208F6FF12C1
:0510A40010EB80E222C8
:1010C200E4FFFE1208F6600E0FBF00010E74012944
:0610D200F9E43AFA80ED9A
:0110D80022F5
:1010FD00E4FDFCC3ED9FEC9E50070DBD00010C807F
:01110D00F2EF
:01110E0022BE
:10080000E709F608DFFA8046E709F208DFFA803EDA
:1008100088828C83E709F0A3DFFA8032E309F608C7
:10082000DFFA8078E309F208DFFA807088828C832F
:10083000E309F0A3DFFA806489828A83E0A3F608E3
:10084000DFFA805889828A83E0A3F208DFFA804CBD
:1008500080D280FA80C680D4806980F28033801094
:1008600080A680EA809A80A880DA80E280CA8033FD
:1008700089828A83ECFAE493A3C8C582C8CCC58375
:10088000CCF0A3C8C582C8CCC583CCDFE9DEE78045
:100890000D89828A83E493A3F608DFF9ECFAA9F0C4
:1008A000EDFB2289828A83ECFAE0A3C8C582C8CC1A
:1008B000C583CCF0A3C8C582C8CCC583CCDFEADE33
:1008C000E880DB89828A83E493A3F208DFF980CC95
:1008D00088F0EF60010E4E60C388F0ED2402B4048E
:1008E0000050B9F582EB2402B4040050AF23234535
:0608F00082239008507302
:1008F600BB010689828A83E0225002E722BBFE0200
:09090600E32289828A83E4932232
:100B6D00E55B244FF8E6055B22784C300702784FA1
:100B7D00E475F001120B370208F62000EB7F2ED240
:100B8D00008018EF540F2490D43440D4FF30040B60
:100B9D00EF24BFB41A0050032461FFE55C60021519
:100BAD005C055FE55F7002055E30070D784CE475FE
:100BBD00F001120B37EF020B0302105D7403D20725
:100BCD008003E4C207F55B8B4C8A4D894EE4F55CDE
:100BDD00F55EF55FE55C60077F20120BA880F5756B
:100BED005DFFC201C200C202C203C205C206C20835
:100BFD00120B76FF700D3007057F00120BB9AF5F3A
:100C0D00AE5E22B4255FC2D5C204120B76FF24D08E
:100C1D00B40A00501A75F00A785C30D50508B6FF95
:100C2D000106C6A426F620D5047002D20380D9246D
:100C3D00CFB41A00EF5004C2E5D204020DB9D201AF
:100C4D0080C6D20080C0D20280BCD2D580BAD20577
:100C5D0080B47F20120BA82002077401B55C004000
:100C6D00F1120B6DFF120BA8020BE1D208D2068018
:100C7D0095120B6DFB120B6DFA120B6DF94A4B7041
:100C8D0006798A7A0E7BFF20022EE55C602A7E00B3
:100C9D008E82758300120AD660060EEE655D70F0C9
:100CAD00C2D5EBC0E0EAC0E0E9C0E0EE120E00D024
:100CBD00E0F9D0E0FAD0E0FB1208F6FF60AAEBC035
:100CCD00E0EAC0E0E9C0E0120BA8D0E02401F9D0C1
:100CDD00E03400FAD0E0FBE55D0460DCD55DD98041
:100CED00877BFF7A0D79FCD202809C791080027986
:100CFD0008C206C2088008D2D5790A8004790AC2D2
:100D0D00D5E55D047002F55DE4FAFDFEFF120B6D95
:100D1D00FC7B08200113120B6DFD7B1030000A12B5
:100D2D000B6DFE120B6DFF7B20EC3382D592D550EF
:100D3D0013C3E43000069FFFE49EFEE42001039DF3
:100D4D00FDE49CFCE4CBF8C201EC700CCFCECDCC15
:100D5D00E824F8F870F38017C3EF33FFEE33FEEDA0
:100D6D0033FDEC33FCEB33FB994002FB0FD8E9EB81
:100D7D00300105F8D0E0C448B201C0E00AEC4D4E98
:100D8D004F78207B0070C2EAB55D0040BCC0E01218
:100D9D000E02D0F0D0E0200104C4C0E0C4B201C006
:100DAD00F0120B91D0F0D5F0EB020BE1120B470CCA
:100DBD007E530CF8580C4F4C0C4B420CFC4F0D0451
:0F0DCD00440D04490C64430D0A550CEE460CEE20
:100DDC00450CEE470EAA500C532D0C572E0C7A2BAB
:100DEC000C5B230C78200E932A0C134800000C7219
:100DFC003F3F3F00790AA2D5200314300509B910F2
:100E0C00020404B9080104A2D520060250010420F2
:100E1C0002689202B55C005034C0E07F20300319A8
:100E2C007F30A20272067205500F120E59C202C216
:100E3C0006C205C2087F30800F300503E9C0E012FE
:100E4C000BA8300503D0E0F9D0E0B55CCC30051729
:100E5C007F30B9100C120BA87F583004077F7880B4
:100E6C0003B90803120BA83002057F2D020BA87FD3
:100E7C00202008F87F2B2006F322920280CF286EC8
:100E8C00756C6C2900D201120B6D3001F8C201781F
:100E9C005C30D50108F6020C132D50434958120B47
:100EAC006D2403B405004001E4900EA593120B9938
:0D0EBC00743A120B99D203755C04020CF815
:10090F00E3F5F009E208B5F06D606B80F3E3F5F005
:10091F0009E608B5F060605E80F387F009E608B578
:10092F00F054605280F487F009E208B5F048604651
:10093F0080F488828C8387F009E0A3B5F0386036A5
:10094F0080F488828C8387F009E493A3B5F0276045
:10095F002580F388828C83E3F5F009E0A3B5F016C8
:10096F00601480F388828C83E3F5F009E493A3B5D8
:10097F00F004600280F2020A3A808580E7808E8060
:10098F00D2803C8015806C807E809B80B5808B8070
:10099F00A1804F8070803A020A4689828A83ECFADE
:1009AF00E493F5F0A3C8C582C8CCC583CCE493A368
:1009BF00C8C582C8CCC583CCB5F070606E80E189A4
:1009CF00828A83E493F5F0A3E208B5F05E605C8061
:1009DF00F289828A83E0F5F0A3E608B5F04D604B0B
:1009EF0080F389828A83E0F5F0A3E208B5F03C60DA
:1009FF003A80F389828A83E493F5F0A3E608B5F091
:100A0F002A602880F2805389828A83ECFAE493F576
:100A1F00F0A3C8C582C8CCC583CCE0A3C8C582C823
:100A2F00CCC583CCB5F004600280E27FFFB5F00245
:100A3F000F2240027F012289828A83ECFAE0F5F0CF
:100A4F00A3C8C582C8CCC583CCE0A3C8C582C8CC17
:100A5F00C583CCB5F0D560D380E389828A83ECFA65
:100A6F00E0F5F0A3C8C582C8CCC583CCE493A3C876
:100A7F00C582C8CCC583CCB5F0B160AF80E288F039
:100A8F00ED2402B4040050A3F582EB2402B4040059
:0B0A9F0050992323458223900988739F
:100FA1008B618A628963E4F569F56AE5681568AE63
:100FB10067700215674E6033AB64AA65A9661208B3
:100FC100F6FFAB61AA62A963056AE56AAC697002C2
:100FD100056914F5828C83EF120B15EF60CD740156
:100FE1002566F566E43565F56580C0AB61AA62A941
:020FF100632279
:100AAA00EF4E6012EF60010EEDBB010B89828A8363
:100ABA00F0A3DFFCDEFA2289F05007F709DFFCA970
:0C0ACA00F022BBFEFCF309DFFCA9F022C7
:100AD600BB010CE58229F582E5833AF583E02250D5
:100AE60006E92582F8E622BBFE06E92582F8E2221F
:0D0AF600E58229F582E5833AF583E4932239
:100B0300BB010689828A83F0225002F722BBFE01D1
:020B1300F322CB
:100B1500F8BB010DE58229F582E5833AF583E8F016
:100B2500225006E92582C8F622BBFE05E92582C8C2
:020B3500F222AA
:100B3700FAE6FB0808E6F925F0F618E6CA3AF622BF
:100B4700D083D082F8E4937012740193700DA3A33D
:100B570093F8740193F5828883E473740293686051
:060B6700EFA3A3A380DF51
:10105D00EFB40A07740D121068740A309811A8992C
:10106D00B8130CC2983098FDA899C298B811F630F3
:07107D0099FDC299F59922CB
:00000001FF
